:020000040000FA
:1000000002EF00F0E86A00EE40F0F10E41EC00F083
:10001000540E41EC00F0AC0E41EC00F03F0E41EC10
:1000200000F000EE40F010EE50F0040E026E040EF0
:10003000036EEF5045EC00F043EC00F0EE504BEC5B
:1000400000F043EC00F0022EF2D700EE40F010EE8C
:1000500050F0040E026E32EC00F032EC00F0022E92
:10006000FAE7FFD7000EF86E050EF76E000EF66E7B
:10007000E750010F016E09000106FDE1F5CFE6FF33
:100080001200EE6E1200E66E1200F00B046E4DECE4
:1000900000F0045012000F0B12000442032EFDE189
:1000A00012000050E824F926300C310C320C330CCD
:1000B000340C350C360C370C380C400C410C420C0F
:0A00C000430C440C450C460C1200E2
:100500003031323334353637384041424344454642
:00000001FF
