:020000040000FA
:10000000936A956A816A836AF00E946E18EF00F025
:100030000E0E826E82A857EC00F082AA63EC00F0EC
:1000400082AC6FEC00F082AE7BEC00F00D0E826EA5
:1000500082A887EC00F082AA93EC00F082AC9FECBF
:1000600000F082AEABEC00F00B0E826E82A8B7EC13
:1000700000F082AAC3EC00F082ACCFEC00F082AEBC
:10008000DBEC00F0070E826E82A8E7EC00F082AA9B
:10009000F3EC00F082ACFFEC00F082AE0BEC01F070
:1000A00018EF00F0020EF06FF007FEE11200000EF4
:1000B000816E836A060E836E52EC00F082A8FED732
:1000C00052EC00F01200000E816E836A5B0E836EAC
:1000D00052EC00F082AAFED752EC00F01200000EA3
:1000E000816E836A4F0E836E52EC00F082ACFED7B5
:1000F00052EC00F01200000E816E836A660E836E71
:1001000052EC00F082AEFED752EC00F01200010E6D
:10011000816E836A6D0E836E52EC00F082A8FED76A
:1001200052EC00F01200010E816E836A7D0E836E28
:1001300052EC00F082AAFED752EC00F01200010E41
:10014000816E836A070E836E52EC00F082ACFED79C
:1001500052EC00F01200010E816E836A7F0E836EF6
:1001600052EC00F082AEFED752EC00F01200020E0C
:10017000816E836A6F0E836E52EC00F082A8FED708
:1001800052EC00F01200020E816E836A770E836ECD
:1001900052EC00F082AAFED752EC00F01200020EE0
:1001A000816E836A7C0E836E52EC00F082ACFED7C7
:1001B00052EC00F01200020E816E836A390E836EDB
:1001C00052EC00F082AEFED752EC00F01200030EAB
:1001D000816E836A5E0E836E52EC00F082A8FED7B9
:1001E00052EC00F01200030E816E836A790E836E6A
:1001F00052EC00F082AAFED752EC00F01200030E7F
:10020000816E836A710E836E52EC00F082ACFED771
:1002100052EC00F01200030E816E836A3F0E836E73
:0E02200052EC00F082AEFED752EC00F012005D
:020000040030CA
:03000100011F1EBE
:020005008381F5
:060008000FC00FE00F40E5
:00000001FF
