:020000040000FA
:100000000F0EC16E936A956A816A836A78EF00F079
:100030003F0006005B004F0066006D007D0007007A
:100040007F006F0077007C0039005E00790071004E
:1000F000040E246E256A7FEC00F078EF00F0A4EC8B
:1001000000F025C081FF2550040DF3CF26F0B6EC9A
:1001100000F0836EA7EC00F0262AB6EC00F0836EA8
:10012000A7EC00F0262AB6EC00F0836EA7EC00F0F6
:10013000262AB6EC00F0836EA7EC00F02306E1E17E
:10014000252A2406DCE11200030E236E1200040EA1
:10015000226EFA0E216E320E206E00000000200684
:10016000FCE12106F8E12206F4E11200300EF66E01
:10017000000EF76E000EF86E2650020DF350F626B4
:0C018000000EF722F8220800F5501200D3
:020000040030CA
:03000100011F1EBE
:020005008381F5
:060008000FC00FE00F40E5
:00000001FF
