:020000040000FA
:100000000F0EC16E9368926A946A956A40EF00F091
:100080000A0E166EA4EC01F0D2EC00F003EC01F0C5
:1000900081A064EC00F081A26FEC00F081A47AEC06
:1000A00000F081A685EC00F081A890EC00F081AA18
:1000B0009BEC00F081ACA8EC00F081AEB5EC00F058
:1000C00046EF00F062EF00F059EC01F0D2EC00F0E6
:1000D000F4EC00F081A0FED7CDEC00F012006CEC47
:1000E00001F0D2EC00F0F4EC00F081A2FED7CDECF0
:1000F00000F012007FEC01F0D2EC00F0F4EC00F024
:1001000081A4FED7CDEC00F0120092EC01F0EBECF4
:1001100000F0F4EC00F081A6FED7CDEC00F0120068
:10012000C8EC01F0D2EC00F0F4EC00F081A8FED7AE
:10013000CDEC00F012000A0E166EDBEC01F0D2ECF2
:1001400000F0F4EC00F081AAFED7CDEC00F0120034
:10015000140E166EEDEC01F0D2EC00F0F4EC00F0B1
:1001600081ACFED7CDEC00F01200F4EC00F081A8D9
:10017000BFEC00F081AEC3EC00F0F7D7120081A80D
:10018000FED77ED71200B6EC01F0D2EC00F0FFEC07
:1001900001F0EBEC00F096D71200280E106E10065E
:1001A000FEE11200112A000E122213EC01F0212AA6
:1001B000000E22221106F9E11266E0EC00F01200B6
:1001C000136A13EC01F0212A000E22221306F9E132
:1001D0001206F6E1120013EC01F0100E2126000EBB
:1001E00022221106F8E1120016C017F0050E166E55
:1001F000020E186E20EC02F0EBEC00F01806FAE1AB
:1002000017C016F0120016C017F0050E166E0EEC91
:1002100002F0EBEC00F017C016F01200400E146E66
:100220001406FEE1120016C015F01F6A206A21C0F4
:100230001FF022C020F0100E246E26EC01F0080EF4
:10024000246E26EC01F01506F0E11200080E236E74
:1002500024C080FF826A836A3BEC01F0826E4AEC24
:1002600001F0836E1F2A000E2022242A0EEC01F0DA
:100270002306EEE1120019C0F6FF1AC0F7FF1BC0FB
:10028000F8FF1F50F6262050F722000EF822080033
:10029000F55012001CC0F6FF1DC0F7FF1EC0F8FF8E
:1002A0001F50F6262050F722000EF8220800F550C5
:1002B0001200020E126EB00E116E216A226A000E3A
:1002C000196E400E1A6E000E1B6EC00E1C6E420E92
:1002D0001D6E000E1E6E1200080E126E300E116E94
:1002E000216A226A800E196E450E1A6E000E1B6E70
:1002F000C00E1C6E4D0E1D6E000E1E6E1200020E04
:10030000126E6C0E116E216A226A000E196E560E64
:100310001A6E000E1B6E7C0E1C6E580E1D6E000EAB
:100320001E6E1200126A600E116E216A226AF80EA9
:10033000196E5A0E1A6E000E1B6EF80E1C6E600EB1
:100340001D6E000E1E6E1200126A400E116E216AA2
:10035000226AF80E196E660E1A6E000E1B6E480E9B
:100360001C6E670E1D6E000E1E6E1200126A500E7D
:10037000116E216A226A980E196E670E1A6E000EAF
:100380001B6EF80E1C6E670E1D6E000E1E6E1200A8
:10039000010E126E780E116E216A226A580E196EC5
:1003A000680E1A6E000E1B6EE00E1C6E690E1D6E3E
:1003B000000E1E6E1200126A8C0E116E216A226AE5
:1003C000680E196E6B0E1A6E000E1B6E0C0E1C6EF4
:1003D0006C0E1D6E000E1E6E1200126A980E116ECB
:1003E000216A226AB00E196E6C0E1A6E000E1B6E18
:1003F000580E1C6E6D0E1D6E000E1E6E1200126ADF
:10040000010E116E216A226A000E196E1C6E6E0EAC
:100410001A6E1D6E000E1B6E1E6E1200126A080E02
:10042000116E216A226A100E196E6E0E1A6E000E7F
:100430001B6E900E1C6E6E0E1D6E000E1E6E120058
:10044000126A180E116E216A226A100E196E6F0E52
:100450001A6E000E1B6E900E1C6E700E1D6E000E3E
:040460001E6E1200FA
:1040000000000000000000000000000000000000B0
:10401000C060F8FF0730381F0FCCCC0C2C3C1C00C4
:104020001818F8FF1FF8F8868686F6F69E8E86002A
:104030000000000000000080800000000000000080
:1040400040C06030180C2663C70C18302060400058
:10405000000000FFFFC3C3C3C3C3C3FFFF000000D2
:10406000C060F8FF70006676FEEE6733B383000031
:1040700000C0C0C0C0C0C0FFFFC0C0C0C0C0C00042
:1040800000C0C0C0C0C0C0C0C0C0C0C0C0C0C000B0
:10409000000000FEFE262626262626FEFE00000044
:1040A00000303030FFFF30303030FFFF3030300034
:1040B000006060606060626E6C60606060606000A4
:1040C00000C0DEDED2DEDE00F858FFFF5A1ABA3832
:1040D00000000000000000808000000000000000E0
:1040E00006F6F63636F6F63EFEF63636F6F60600F6
:1040F000000E0EB6B6F6F7B73636B6F64E0E000020
:10410000C060F8FF07006676FEEE6733B3830000F9
:10411000060606060606FEFE0666C68606060600B5
:10412000C0D8D8DADADAFFFFDADAFEFED8D8D8005B
:1041300000C0C0C0C0C0C0C0C0C0C0C0C0C0C000FF
:104140007E7E56FEFE567E008080FEFE9898980089
:1041500000C0C0C0C0C0C0FFFFC0C0C0C0C0C00061
:1041600000C060F0D8CEC6C0C0CEDEF870E040001F
:1041700000000000000080404080000000000000BF
:10418000C060F8FF0730381F0FCCCC0C2C3C1C0053
:1041900006F6F63636F6F63EFEF63636F6F6060045
:1041A000000E0EB6B6F6F7B73636B6F64E0E00006F
:1041B000000000FEFE565757565656FEFE80C000C1
:1041C00000F8F80828287FFFAAAAAAAADA1A00008D
:1041D000FCFC0CFC60F8FF0780B6FEEEBBDBC00009
:1041E00000B0B6F6763636FEFE3373F3B2B0B000EA
:1041F0002062C60C606CECFF7F6CFFFF6C6F600090
:1042000030FEFE30F8F8D8D8D8FFFF18DEDE000008
:10421000000CCCCCCCCCCDFFFECCCCCCCCCC0C0090
:10422000003030303030FFFF303030303030000080
:10423000C0C07F7F55406D526D40557F7FC0C0002C
:10424000FCFC0CFC00FFFFD3FF007B63FFFF63005F
:10425000003C3C3C3C000000F8FE8F8FFEF8000064
:10426000F8FE0F0703030000303CFFFF00000000D2
:10427000C0C0C0C0C0C00000FFFF8FCFFE780000EC
:10428000303CFFFF0000000078FECFCFFE7800003A
:10429000F8FE0F0FFEF80000F8FE0F0FFEF800000A
:1042A000000000000000804040800000000000008E
:1042B00000000000000000000000000000000000FE
:1042C00000000000000000000000000000000000EE
:1042D00000007F7F001C0F23607F3F00031E18003B
:1042E0004061331E0C1F330161617F3F01010100FA
:1042F00000000000000000050300000000000000B6
:104300000000030303030363731B0F070300000094
:104310000000003F3F3030303030303F3F00000081
:1043200000007F7F00301B0B637F3F0F0B1B3300B0
:10433000000000000000007F7F000000000000007F
:10434000000000000000000000000000000000006D
:104350000000703F0F030303032363633F0000006B
:10436000000000007F7F181818187F7F00000000F1
:104370000020301C0E0300000001030E383800003E
:1043800000000767663E3E403F407D053D7D416041
:104390000000000000000005030000000000000015
:1043A000007F7F00001F1F001F1F60607F3F000015
:1043B00000696D2D361B6D677E3F030E18300000BF
:1043C00000007F7F00301B0B637F3F030B1B33001C
:1043D0000000000000007F7F0000000103020000D9
:1043E0006060607E7E6A6A6A6A6A7E7E6060600083
:1043F00000000000000000000000000000000000BD
:104400006D0D6D0F6F0D6D007F7F3131317F7F003E
:10441000000000000000007F7F000000000000009E
:1044200000206030180F070060603F1F0000000090
:104430000000000000000102020100000000000076
:1044400000007F7F001C0F23607F3F00031E1800C9
:10445000007F7F00001F1F001F1F60607F3F000064
:1044600000696D2D361B6D677E3F030E183000000E
:104470000063636333331B1B0F07637F3F0100003F
:10448000607F3F48472F122E46504E425E505840A4
:104490000F0F060F007F7F001D1D617F3F0D1D0068
:1044A0000001017F7F2B2B2B2B2B2B7F7F0101000A
:1044B00020781E0006033F7E6A6A6E6F7336060020
:1044C000181F0F2C3F1F080F2F301B1E3F61780055
:1044D00000003F3F0000007F7F0010303F1F0000C2
:1044E00000406030180E0703060C183060400000D2
:1044F000000C0C0D0D6D6D7D3F0F0D0D0C0C0000B3
:104500000F0F060F001F1F6C7E381C0E3F7F6000D0
:10451000003C3C3C3C000000FFFF0303FFFF0000A9
:104520001F7FF0E0C0C00000C0C0FFFFC0C000009F
:104530000303030303030000FFFF01010000000069
:10454000C0C0FFFFC0C000001E7FF3F37F3C00002F
:104550001F7FF0F07F1F00001F7FF0F07F1F000023
:104560000000000000000102020100000000000045
:10457000000000000000000000000000000000003B
:10458000000000000000000000000000000000002B
:10459000F800FFFF3018C07800FFFF0018704000DF
:1045A00040E3733F1F3363FFFF6B6B6B6F6760000C
:1045B00000037B7B5BFFFF5B5B7F7F5B7B7B0300A1
:1045C0000000FFFF333333FFFF333333FFFF0000BF
:1045D0000066EECC3036FEEE666767EEEF363600EC
:1045E0002266CC00F8F89898FFFF9898F8F8000039
:1045F00000000000000000808000000000000000BB
:104600000096B6260F4F7676E6AFEF6626060000D8
:104610000006F6F6B6B636FEFEB6B636F6F600007C
:1046200018F8F86CEC66EEEB6FE66CECF818180016
:10463000000C8CCCECFC7F6F6C6C6CECEC0C0C000C
:1046400000303030F0F000FFFFC06030180800008C
:104650000C0C8CCCFF3F0C0CECFF1F8CCC4C0C00DA
:10466000000000000000008080000000000000004A
:1046700000303030F0F000FFFFC06030180800005C
:1046800000FEFE0636B6B6B6B6B6B606FEFE0000AC
:104690002266CC00F8F89898FFFF9898F8F8000088
:1046A00000FFFF033333FBFBB3333303FFFF000093
:1046B0000000181EDEF87F5F585878F8C000000030
:1046C000C6F6FE36F60CCC3D9F0ECC7E3F8D0C0020
:1046D0006062E6EC00F3F3B7BFFBFFB7F3F1000055
:1046E000004040DFDF5555D5D55555DFDF40000090
:1046F000001C1C0C6C6C6D6F6E6C6C0C1C1C000038
:1047000000606030786C66E3E76C78703060600061
:10471000FCFC0C0CFCC0DBDBFFFFDBFBFBC3C000C5
:1047200000FEFE0636B6B6B6B6B6B606FEFE00000B
:104730000000000000000080800000000000000079
:1047400000F6F6B6B63636FEFEB6B63636F6F600E5
:104750006060606C6C6CFFFF6C6C70786E66600003
:1047600000FFFF033333FBFBB3333303FFFF0000D2
:104770000000181EDEF87F5F585878F8C00000006F
:104780006C7860FFFF6C6418D8DB1F1CD8D8180049
:10479000C0C0C3C3C3C3C3F3F3DBCFC7C3C0C00030
:1047A000F000FFFF1020707E1E18FFFF1818180081
:1047B000607E3ECAFB7949607E7E4AFBF9090000B3
:1047C000FCFC0C0CFCC0DBDBFFFFDBFBFBC3C00015
:1047D00000FEFE0636B6B6B6B6B6B606FEFE00005B
:1047E00006F6F63636F6F63EFEF63636F6F60600EF
:1047F000F6F6363E3E00EEEEAAEEE0AEEAEE0E0033
:1048000000FFFF2BABBFBF80BFBFAB2B2BFFFF0059
:104810000000000000000080800000000000000098
:104820000000063EFEC6060606C6F63E0E00000066
:104830006666FEFF63600EDE56E6EE46D3CB0300EF
:10484000F6F6363E3E00EEEEAAEEE0AEEAEE0E00E2
:104850002266CC00F8F89898FFFF9898F8F80000C6
:1048600000000000000080404080000000000000C8
:10487000C0CCFCECCDFFFFCCFCFFCFEDFCCCC000EE
:104880006062E6EC00F3F3B7BFFBFFB7F3F10000A3
:104890000000000000FFFF8000000000000000009A
:1048A00000C0C0C0C0C0C0C0C0C0C0C0C0C0C00088
:1048B0001818FFFF1800FCFC0C0CFFFF6C6C6C0060
:1048C0000066767EEEE676766600FC00FFFF00006E
:1048D00000000000000000808000000000000000D8
:1048E000F656FFFF56F660FE9E66FE9E66FE9E0032
:1048F000FEFEB6B6B6B6FEFE00FCFC00FFFF0000F2
:10490000FEFED6C0D6FEFE00B0BF9F83BFBF300004
:10491000000E4E663696C66767C69636666E0E0001
:104920000000000000000080800000000000000087
:1049300008080AEAEAAAAAFEFFABABEBEB080800FC
:10494000FEFEB6B6B6B6FEFE00FCFC00FFFF0000A1
:104950000000FFFFB3B3B3FFFFB3B3FFFF000000DE
:104960000000FCFCCCCCCCFFFFCCCCCCDC1C000091
:104970000000000000000080800000000000000037
:1049800000FFFF03DBDBFBFBDBDB03FFFF000000C3
:10499000FEFE66DE18D8CC56D313D64CD8D800000D
:1049A00018D8FFFFD898F636F606F69EBEF6000039
:1049B0000006067676565657575676760606000057
:1049C00000000000000000808000000000000000E7
:1049D00000FEFE3636F3F300FEFE66E6E36360009B
:1049E00000FEFE0002060C180000FEFE00000000A3
:1049F00000C0C0C0C0C0C0C0C0C0C0C0C0C0C00037
:104A000080FCFC97A7FCFC60FEBE86BEFEE060005A
:104A1000105C4CB8AFDFEAA2E0CAAA923E260000C2
:104A200000FEFE16F656F6F717D656FE7ED6160090
:104A3000606CECFFFF6C787C60FEFE06E6BE1E003C
:104A4000FCFC0C0CFCC0DBDBFFFFDBFBFBC3C00092
:104A500018F8F86CEC66EEEB6FE66CECF8181800E2
:104A600000FFFF30303000FFFF60303818000000DA
:104A70000000E0EEAEAAAAAAAAAAAAAEEEE0000042
:104A800000000006060606FEFE06060606000000FA
:104A900000FEFE0002060C180000FEFE00000000F2
:104AA0000000FEFE56575756565656FEFE80C00072
:104AB00020361EFCFE0600FEFE068686FEFE000078
:104AC000FEFE66DE18D8CC56D313D64CD8D80000DC
:104AD0000096B6260F4F7676E6AFEF662606000004
:104AE0000006F6F6B6B636FEFEB6B636F6F60000A8
:104AF00000808098989898FFFF98989898808000F8
:104B000010909494D4D47F7F745458D8DC1612003B
:104B1000FCFC0CFC00FEFE36B6B6363EBE80000045
:104B20006062E6EC000CEDEFBEBCAEAFEDEC0C004D
:104B3000000026E6A62F6FE6B63F9FD65606000079
:104B400000000000000080404080000000000000E5
:104B5000000C8CCCECFC7F6F6C6C6CECEC0C0C00E7
:104B60000096B6260F4F7676E6AFEF662606000073
:104B70000006F6F6B6B636FEFEB6B636F6F6000017
:104B8000F800FFFF3018C07800FFFF0018704000E9
:104B900040E3733F1F3363FFFF6B6B6B6F67600016
:104BA000C060FCFF031818FFFF1818FFFF1818005B
:104BB00000FEFE66FEFE66FFFF56FEFE5656000035
:104BC000FCFC0CFC00FFFFD3FF007B63FFFF6300D6
:104BD000105C4CB8AFDFEAA2E0CAAA923E26000001
:104BE00000FEFE16F656F6F717D656FE7ED61600CF
:104BF000000000FEFE868686868686FEFE00000099
:104C0000000C8CCCECFC7F6F6C6C6CECEC0C0C0036
:104C100000C0F03C0C00FFFF00000C1C38702000AE
:104C2000187E5E5AFFFF5A7EE8F81F1FF8F818003A
:104C30000000000000000080800000000000000074
:104C400006F6F63636F6F63EFEF63636F6F606008A
:104C5000000000FEFE6666666666FEFE000000005E
:104C60000030BCEF73B000FEFEC6FEFEC6FEFE00C6
:104C7000C060F8FF07606C6CFFFFEC707C6C60003C
:104C8000000C8CCCECFC7F6F6C6C6CECEC0C0C00B6
:104C90000030303676F6B63F3FB6F6763630300026
:104CA00000606030F8FCAFBBA6ACF8F0306060008C
:104CB0006062E6EC00E0FF7F6B7B637FFFE000005B
:104CC00000C0C0C0C0C0C0C0C0C0C0C0C0C0C00064
:104CD000000C3CC040F07C1FDBDB1858783800002B
:104CE00000000000000000808000000000000000C4
:104CF000FCFC0CFC60FCFF03FFFFB3FBB3FFFF00F9
:104D00006666FEFF636310D656FEFE53D3D31000D3
:104D100000FEFE06F6F63636F6F60606FEFE000045
:104D2000001818FEFE9898989898FEFE1818000033
:104D3000000606F6F6565E5F5756F6F606000000C9
:104D4000C060F8FF07006676FEEE6733B3830000AD
:104D500002E2AFFFFAAFEF32FFFFDBFBFBD8D80078
:104D600000FEFE0002060C180000FEFE000000001F
:104D7000000C0CFCFCCCCFCFCCCCCCCCCC0C0000B1
:104D8000F000FFFF7086F65676D7F75676F6860067
:104D90000000000000000000000000000000000013
:104DA0000000000000000000000000000000000003
:104DB00000000000000000000000000000000000F3
:104DC00000000000000000000000000000000000E3
:104DD00060381F03064C406020331B0C07030000A3
:104DE00000606F6F6D6D6D7F3F2D2D3D3D6F6000DD
:104DF000036363636F2F3B331B1F3723636303001E
:104E000040703F0F0303037F7F0303637F3F000076
:104E100060781E06181C6D7F3F310F1F3D766000C5
:104E2000703CE0007F7F31313F3F31317F7F0000B8
:104E3000000000000000000503000000000000006A
:104E40000060390D00027E7F2525257F7E0202004D
:104E500000007F7F040D003F3F040D607F3F000096
:104E600000017D7D5555555555557D7D010000004E
:104E7000020301007F7F09090909697F3F000000E3
:104E800010180C060320607F3F0103060C18180061
:104E90000203017F7F000C0C3F7F6361607830006C
:104EA00000000000000000050300000000000000FA
:104EB00010180C060320607F3F0103060C18180031
:104EC000007F7F00000F0F0D0D0F2F607F3F000050
:104ED000703C0E007F7F31313F3F31317F7F0000DA
:104EE000007F7F3436333130313336347F7F0000FA
:104EF000181C6E7F1B031B331B220B7B637F3F0041
:104F0000000F0F040F103D171130191F131D300033
:104F100040603F1F306F6F62626F6F626F6F600043
:104F2000004050575755557F7F55555757504000B3
:104F3000006363331F0F03033F7F636373730000DA
:104F4000006060666666667F7F6666666660000013
:104F50000F0F060607007E7E323232327E7E000060
:104F6000007F7F00000F0F0D0D0F2F607F3F0000AF
:104F70000000000000000005030000000000000029
:104F8000007F7F0C07030E3F3F0C07636E3F3F001F
:104F90000C0C06027F7F6B6B6B6B6B7F7F000000DE
:104FA000007F7F3436333130313336347F7F000039
:104FB000181C6E7F1B031B331B330B7B637F3F006F
:104FC0000406037F7F0366606367787E6761600025
:104FD000000000000020607F3F0000000000000093
:104FE00000007F7F0000606363637F7F6363600016
:104FF0000000404F6F2929090929296F4F400000FF
:105000000F0F060607007E7E323232327E7E0000AF
:10501000007F7F00000F0F0D0D0F2F607F3F0000FE
:10502000007F7F00001F1F001F1F60607F3F000088
:105030006363633F1F181B1B1A7F7F1A1B1B18001B
:10504000007F7F00263F1F063F3F0606607F3F0030
:105050000000000000000005030000000000000048
:105060000060603030190F060F1B18303060600090
:1050700006037F7F01020C7F0D0F0F6D7F3F0C0039
:105080006363633F1F181B1B1A7F7F1A1B1B1800CB
:10509000703C0E007F7F31313F3F31317F7F000018
:1050A00000000000000001020201000000000000FA
:1050B00000007E7E2A2A2A2A2A2A2A7E7E000000D2
:1050C00040603F1F306F6F62626F6F626F6F600092
:1050D0006030180C07030103060C18306020000034
:1050E00000000000000000000000000000000000C0
:1050F00003637F3F21781F077E3E33333E730000FA
:10510000303333333F1F1B1B18000F607F3F0000FD
:105110000000000000000005030000000000000087
:105120001B1B7F7F1B1B606767667F7F6667610055
:105130006F7F1D0D0D1D7F6F000F6F607F3F0000A3
:105140006666667F3F36366061773F193F7760005D
:10515000000406027F7D242424247D7F03060200B0
:105160000000000000000005030000000000000037
:105170000060686B6B6A6A7F7F6A6A6B6B60600055
:105180006F7F1D0D0D1D7F6F000F6F607F3F000053
:1051900040703F0F0101013F7F616D6F67707000CC
:1051A00040703F0F40612336181C36636160200059
:1051B00000000000000000050300000000000000E7
:1051C000707F1F0017161F1F163F003F7F60700083
:1051D0007F7F0C0F60733B1A73603B1A7363000090
:1051E00003017F7F006167666F686F6663666C00AE
:1051F000007F7F011D1D1515151D1D617F3F0000DE
:105200000000000000000005030000000000000096
:10521000603F0F03034363381F07007F7F000000D8
:10522000001F0F06636130180C070F3830000000B4
:10523000000000000000000000000000000000006E
:10524000613F0F01617F3F406337191D37632000C5
:105250000101017F7F2A2A1A3A2A6F5F514100001B
:10526000307F2F2B3F2B7F7F340575754D653400C4
:1052700006037F7F2D2D7F7F007F7F10303F1F0033
:105280000F0F060607007E7E323232327E7E00002D
:1052900001007D7D5555555555557D7D010000001A
:1052A000007F7F301818003F7F606060783000001A
:1052B00000405F7F3A1A1A1A1A1A1A3A7F5F4000A2
:1052C000000030303030303F3F3030303030000080
:1052D000001F0F06636130180C070F383000000004
:1052E0000363636333331B1B0F67637F3F0100005E
:1052F0000466637F3F00003F7F606161617830003A
:105300007F7F0C0F60733B1A73603B1A736300005E
:105310000060390D00027E7F2525257F7E02020078
:1053200000007F7F040D003F3F040D607F3F0000C1
:10533000006171796F67613131353D39716101000B
:10534000006131010F3F6D0D0D3D6D0F3F6040005D
:105350000F0F0367381F07003F7F62637130000043
:1053600040603F1F30606F6F6A6A6A6A6F6F6000EB
:10537000066666361E0E067F7F0E1E3666662600A1
:105380000000000000000102020100000000000017
:10539000020301007F7F09090909697F3F000000BE
:1053A0000060390D00027E7F2525257F7E020200E8
:1053B00000007F7F040D003F3F040D607F3F000031
:1053C00060381F03064C406020331B0C07030000AD
:1053D00000606F6F6D6D6D7F3F2D2D3D3D6F6000E7
:1053E00000007F7F0063331B0B03030B1B33630041
:1053F000303F0F30033B78636F6F73331B3B3000DC
:105400000F0F060F001F1F6C7E381C0E3F7F6000C1
:105410000101017F7F2A2A1A3A2A6F5F5141000059
:10542000307F2F2B3F2B7F7F340575754D65340002
:10543000006030190D0501010101050D19306000F2
:10544000020301007F7F09090909697F3F0000000D
:105450000020606060603333180C07030000000018
:1054600064676F3D373F6D6760331F0C1F3360000B
:105470000000000000000005030000000000000024
:10548000007F7F00001F1F001F1F60607F3F000024
:105490006060607F7F66666666667F7F60606000D2
:1054A000603B033B033B003F3F183F3F183F3F003B
:1054B00000007F7F0006063F7F6D66666333300025
:1054C000020301007F7F09090909697F3F0000008D
:1054D0000018181B1B1B1B7F7F1B1B1B1B18180096
:1054E000000000007F7F36360E1E173F68604000C8
:1054F00040603F1F307F6F60676567686F6F600057
:10550000000000000000000000000000000000009B
:1055100010380E03406030180F070C183060200060
:105520000000000000000005030000000000000073
:105530000F0F060F007F7F007F7F3736377F7F009A
:1055400006037F7F01024057557F7F555757400024
:10555000007F7F3037373636373730307F7F000077
:105560000000007F7F31313131317F7F000000004A
:105570000C4C4C6F3F1D0D0D0D1D3F2F6C4C0C0046
:1055800000007F7F00301B0B637F3F030B1B33004A
:10559000686A3A1F3F6A6A087F7F363F3F363600A7
:1055A000001F0F06636130180C070F383000000031
:1055B000303C0E003E7E6062666C7072060C180015
:1055C0000000FFFF1036377B7C6F6F1C3B6F66005F
:1055D000000000181800001818000018180000003B
:1055E000000000181800001818000018180000002B
:1055F00000000000000000000000000000000000AB
:10560000000000000000000000000000000000009A
:10561000C0FC7F7FFCFC7F7FFCC000000303FFFF1A
:1056200003030000FFFFF8E0FFFF00000303FFFF9C
:1056300003030000C0C0C0C0C0C00000FFFF8FCF88
:10564000FE780000FFFF8FCFFE780000F8FE0F0FFE
:10565000FEF800000303FFFF03030000FFFF838346
:1056600083830000F8FE0F07030300000303FFFF1E
:1056700003030000C0C0C0C0C0C00000FFFF8383A0
:1056800083830000F8FE0F0FFEF80000FFFF8FCFAE
:10569000FE780000C0C0C0C0C0C00000FFFF838310
:1056A00083830000FFFF838383830000181E0FCFD6
:1056B000FE780000F8FE0F0FFEF80000F8FE0F0F56
:1056C000FEF8000080E0FC3FFFFF0000000000004B
:1056D00000000000FFFF8FCFFE780000FFFF8FCF9C
:1056E000FE780000F8FE0F0FFEF80000F8FE070736
:1056F0003E380000FFFF8FCFFE780000F8FE8F8F4E
:10570000FEF80000C0FC7F7FFCFC7F7FFCC0000037
:10571000C0C0C0C0C0C00000FFFF070FFEF80000FF
:10572000FFFF83838383000078FECF8F9E180000E5
:105730000303FFFF03030000F8FE07073E380000E5
:10574000FFFFF8E0FFFF0000FFFF8383838300007B
:10575000FFFF070FFEF80000C0C0C0C0C0C00000BF
:10576000FFFF8FCFFE7800003FFFE0E0FF3F00002B
:10577000C0C0C0C0C0C00000FFFF000000000000AB
:10578000FFFF838383830000FFFF0000FFFF000013
:10579000FFFFF8E0FFFF0000F8FE07073E380000BB
:1057A000C0C0C0C0C0C00000F8FE0F070303000067
:1057B000FFFF8080FFFF0000FFFF0000FFFF0000F1
:1057C000FFFFF8E0FFFF0000C0C0C0C0C0C0000085
:1057D000FFFF0000FFFF0000FFFF0000F8FE8F8FBB
:1057E000FEF800000303FFFF0303000000000000B9
:1057F0000000000000F0FC3F0700000078FECF8FA3
:105800009E1800000303FFFF03030000FFFF070FC4
:10581000FEF80000003C3C3C3C00000000000000A2
:10582000000000007FFFC3C3C3030000F8FECFCF1A
:105830009E180000F8FE0F0FFEF8000080E0FC3F0D
:10584000FFFF0000F8FECFCF9E180000F8FECFCF7C
:105850009E18000078FECFCFFE780000F8FE0F0FF4
:10586000FEF8000000073FFCF00000000000000010
:105870000000000000000000000000000000000028
:10588000000000000000000000000000FFFF00001A
:10589000FFFF0000FFFF0000C0C0FFFFC0C000000E
:1058A000FFFF031FFFFF0000C0C0FFFFC0C00000DC
:1058B0000303030303030000FFFF010100000000D6
:1058C000FFFF030FFEF800001F7FF0F07F1F0000B6
:1058D000E0F87F1F00000000FFFFC1C1C1C1000050
:1058E0001F7FF0E0C0C000000000FFFF00000000CC
:1058F0000303030303030000FFFF01010101000094
:105900001F7FF0F07F1F0000FFFF030FFEF8000075
:105910000303030303030000FFFFC1C1C1C1000073
:10592000FFFFC1C1C1C10000F8FECFC3C0C000006D
:105930001F7FF0F07F1F00001F7FF0F07F1F00002F
:1059400003030303FFFF000000000000000000004D
:10595000FFFF010100000000FFFF030FFEF8000041
:105960001F7FF0F07F1F00003FFFE07038FC000059
:10597000FFFF030FFEF80000FFFF0303FFFF00001F
:10598000FFFF0000FFFF0000FFFF00000303030311
:1059900003030000FFFFE0F07F1F0000FFFFC1C115
:1059A000C1C100001879F1F37F1E0000C0C0FFFFE5
:1059B000C0C000003FFFE07038FC0000FFFF031F85
:1059C000FFFF0000FFFFC1C1C1C10000FFFFE0F009
:1059D0007F1F00000303030303030000FFFFF1F335
:1059E0007F3C00000000FFFF0000000003030303F2
:1059F00003030000FFFFC0C0C0C00000FFFFC1C123
:105A0000C1C100001F7FF0F07F1F0000FFFF031FD8
:105A1000FFFF00003FFFE07038FC000003030303BA
:105A2000030300001F7FF0E0C0C00000FFFF010182
:105A3000FFFF00001F7FF0F07F1F0000FFFF031F2C
:105A4000FFFF00000303030303030000033FFEFE08
:105A50003F3FFEFE3F030000FFFF0303FFFF000088
:105A6000C0C0FFFFC0C00000000000000000000038
:105A7000000F3FFCE00000001879F1F37F1E0000EA
:105A8000C0C0FFFFC0C00000FFFFE0F07F1F0000AC
:105A9000003C3C3C3C000000000000000000000016
:105AA0001878F0F37F1F00001F7FF3F37F1E0000C4
:105AB0001F7FF0F07F1F000003030303FFFF0000C0
:105AC0001F7FF3F37F1E00001F7FF3F37F1E000094
:105AD0003C7FF3F37F3C00001F7FF0F07F1F00004E
:105AE00000E0FC3F0F00000000000000000000008C
:105AF0000000000000000000000000000000008026
:105B00008000000000000000000000000000C080D5
:105B1000C0400000000000000000000000A0C080A5
:105B2000E0402000000000000000000090A0C080C5
:105B3000F0402010000000000000008890A0C0800D
:105B4000F8402010080000000000848890A0C08069
:105B5000FC402010080400000082848890A0C080CF
:105B6000FE402010080402008182848890A0C0803A
:105B7000FF402010080402018182848890A0C08028
:105B8000FF40201008040201808182848890A0C018
:105B9000FF80402010080402404041424448D06049
:105BA00040FF8040201008042020202122A46830DB
:105BB0002040FF804020100810101010915234181F
:105BC000102040FF804020100808088848291A0C3F
:105BD00008102040FF8040200404844424140D0653
:105BE0000408102040FF804082824222120A06826E
:105BF000830408102040FF00814121110985C3E181
:105C0000E1C28408102040FF4020100884C2E170E7
:105C100070E1C28408102040201088C4E2F1783C72
:105C20003C78F1E2C488102090C8E4F2793C1E0F61
:105C30000F1E3C79F2E4C890E8F47A3D1E0F07038A
:105C400003070F1E3D7AF4E87C3E1F0F0703010097
:105C5000000103070F1F3E7C1F0F07030100000018
:105C60000000000103070F1F0703010000000000F0
:105C70000000000000010307010000000000000018
:105C80000000000000000001000000000000000013
:105C900000000000000000003E3E00000000000088
:105CA00000000000000000003E3E3E3E00000000FC
:105CB00000000000000000003E3E3E3E3E3E000070
:105CC00000000000000000003E3E3E3E3E3E3E3EE4
:105CD00000000000000000003E003E3E3E3E3E3E12
:105CE0003E3E00000000000008083E003E3E3E3EF2
:105CF0003E3E3E3E00000000083E00003C3E7E7EF0
:105D00007E7E3E3C000000003E0000003C3CFEFE6B
:105D1000FEFE3C3C0000000000000000383CFEFE9F
:105D2000FEFE3C380000000000000000003CFEFECB
:105D3000FEFE3C0000000000000000000078FCFCBB
:105D4000FCFC7800000000000000000000F0F8F803
:105D5000F8F8F000000000000000000000E0F0F0A3
:105D6000F0F0E000000000000000000000C0E0F0E3
:105D7000F0E0C00000000000000000000080C0E073
:105D8000E0C0800000000000F00000000181C1E1DF
:105D9000E1C18101000000F020F000000283C2E2B6
:105DA000E2C283020000F0202020F0000487C4E457
:105DB000E4C4870400F02020702020F0098FC9E897
:105DC000E8C98F09F022257270202020292F29F898
:105DD000F8292F29202522757020202029FF0988E5
:105DE0008809FF292022257270202020F90F898838
:105DF00088890FF920252275702020F009CFC9C8A5
:105E0000C8C9CF09F02225727020F000C9EFE9E877
:105E1000E8E9EFC900F522757020F00089CFE9E8C4
:105E2000E8E9CF8900F225727020F000098FC9E8F7
:105E3000E8C98F0900F52275702020F0098FC9E8A4
:105E4000E8C98F09F0202070702020F081FF818048
:105E50008081FF81F0202070702020F0213F21A060
:105E600020213F21F0202070702020F0111F11D040
:105E7000D0111F11F0202070702020F0090FE9E8E8
:105E8000E8E90F09F0202070702020F005E7F5F414
:105E9000F4F5E705F0202070702020F005C7E5F448
:105EA000F4E5C705F0202070702020F00587C5E4D8
:105EB000E4C58705F0202070702020F0098FC9E824
:105EC000E8C98F09F020207070202020292F29F8A0
:105ED000F8292F29202020707020202029FF0988F0
:105EE0008809FF292020207070202020F90F898840
:105EF00088890FF920202070702020F009CFC9C8B0
:105F0000C8C9CF09F02020707020F000C9EFE9E87F
:105F1000E8E9EFC900F020707020F00089CFE9E8CF
:105F2000E8E9CF8900F020707020F000098FC9E8FF
:105F3000E8C98F0900F02070722522F0098FC9E8A6
:105F4000E8C98F09F0202070752225F081FF81803B
:105F50008081FF81F0202070722522F0213F21A056
:105F600020213F21F0202070752225F0111F11D033
:105F7000D0111F11F0202070722522F0090FE9E8DE
:105F8000E8E90F09F0202070752225F005E7F5F407
:105F9000F4F5E705F0202070722522F005C7E5F43E
:105FA000F4E5C705F0202070752225F00587C5E4CB
:105FB000E4C58705F0202070702020F0098FC9E823
:105FC000E8C98F09F02020702020F0000487C4E485
:105FD000E4C4870400F0202020F000000283C2E225
:105FE000E2C283020000F020F00000000181C1E164
:105FF000E1C18101000000F0000000000080C0E06D
:10600000E0C0800000000000000000000080C0E050
:10601000E0C0800000000000000000000080C0E040
:10602000E0C0800000000000000000000000C0E0B0
:10603000E0C0000000000000000000000000C0E020
:10604000E0C0000000000000000000000000C0C030
:10605000C0C00000000000000000000000008080C0
:106060008080000000000000000000000000000030
:106070000000000000000000000000000000000020
:106080000000000000000000000000000000000010
:106090000000000000000000000000000000000000
:1060A00000000000000000000000000000000000F0
:1060B00000000000000000000000000000000000E0
:1060C00000000000000000000000000000000000D0
:1060D00000000000000000000000000000000000C0
:1060E00000000000000000000000000000000000B0
:1060F000000000000000000000000000000000019F
:106100000100000000000000000000000000020389
:10611000010300000000000000000000000402076E
:106120000103050000000000000000000804020F49
:106130000103050900000000000000100804021F10
:106140000103050911000000000020100804023FAF
:106150000103050911210000004020100804027FFE
:10616000010305091121410080402010080402FFAD
:10617000010305091121418180402010080402FF1C
:10618000010305091121418140201008040201FF8B
:106190000305091121418101201008040201FF02B9
:1061A000060B1222428202021008040201FF0204BE
:1061B0000C1625448404040408040201FF020408A8
:1061C000182C4A8908080808040201FF0204081074
:1061D00030589412111010100201FF020408102010
:1061E00060B028242221202000FF0204081020C1D2
:1061F0004160504844424141FF0204081021438756
:1062000087C3A19088848281020408102143870EED
:106210000E8743211008040204081123478F1E3CF7
:106220003C1E8F47231108040913274F9E3C78F02A
:10623000F0783C9E4F271309172F5EBC78F0E0C022
:10624000C0E0F078BC5E2F173E7CF8F0E0C0800024
:106250000080C0E0F0F87C3EF8F0E0C08000000074
:1062600000000080C0E0F0F8E0C080000000000006
:10627000000000000080C0E080000000000000007E
:10628000000000000000008000000000000000008E
:1062900000000000000000000000000000000000FE
:1062A00000000000000000000000000000000000EE
:1062B00000000000000000000000000000000000DE
:1062C00000000000000000000000000000000000CE
:1062D00000000000000000000000000000000000BE
:1062E00000000000000000000000000000000000AE
:1062F000000000000000000000000000000000009E
:10630000000000000000000000000000000000008D
:10631000000000000000000000000000000001017B
:106320000101000000000000000000000000030365
:10633000030300000000000000000000000003074D
:106340000703000000000000000000000000030739
:106350000703000000000000000000000001030728
:106360000703010000000000000000000001030717
:106370000703010000000000000000000001030707
:1063800007030100000000000F00000080818387E8
:10639000878381800000000F040F000040C1434745
:1063A0004743C14000000F0404040F0020E12327ED
:1063B0002723E120000F04040E04040F90F193172B
:1063C0001793F1900F04040E0E04040494F4941F28
:1063D0001F94F4940404040E0E04040494FF90101B
:1063E0001090FF940404040E0E0404049FF0911115
:1063F0001191F09F0404040E0E04040F90F3931304
:106400001393F3900F04040E0E040F0093F79717E5
:106410001797F793000F040E0E040F0091F39717D0
:106420001797F391000F040E0E040F0090F19317CD
:106430001793F190000F040E0E04040F90F19317C0
:106440001793F1900F44A44E0E04040F81FF8101B5
:106450000181FF810FA444AE0E04040F84FC840567
:106460000484FC840F44A44E0E04040F88F8880BA7
:106470000B88F8880FA444AE0E04040F90F0971711
:106480001797F0900F44A44E0E04040FA0E7AF2F0F
:106490002FAFE7A00FA444AE0E04040FA0E3A72F74
:1064A0002FA7E3A00F44A44E0E04040FA0E1A327DE
:1064B00027A3E1A00FA444AE4EA4440F90F193177C
:1064C0001793F1900F04040EAE44A40494F4941FA7
:1064D0001F94F4940404040E4EA4440494FF9010FA
:1064E0001090FF940404040EAE44A4049FF0911194
:1064F0001191F09F0404040E4EA4440F90F39313E3
:106500001393F3900F04040EAE44AF0093F7971764
:106510001797F793000F040E4EA44F0091F39717AF
:106520001797F391000F040EAE44AF0090F193174C
:106530001793F190000F040E0E04040F90F19317BF
:106540001793F1900F04040E0E04040F81FF8101D4
:106550000181FF810F04040E0E04040F84FC8405E6
:106560000484FC840F04040E0E04040F88F8880BC6
:106570000B88F8880F04040E0E04040F90F0971790
:106580001797F0900F04040E0E04040FA0E7AF2F2E
:106590002FAFE7A00F04040E0E04040FA0E3A72FF3
:1065A0002FA7E3A00F04040E0E04040FA0E1A327FD
:1065B00027A3E1A00F04040E0E04040F90F193171B
:1065C0001793F1900F04040E04040F0020E1232719
:1065D0002723E120000F0404040F000040C14347BB
:1065E0004743C14000000F040F00000080818387F3
:1065F000878381800000000F000000000001030776
:106600000703010000000000000000000003070F66
:106610000F070300000000000000000000070F0F3C
:106620000F0F07000000000000000000000F1F1FF8
:106630001F1F0F000000000000000000001E3F3F71
:106640003F3F1E000000000000000000003C7F7F74
:106650007F7F3C000000000000000000383C7F7F8E
:106660007F7F3C3800000000000000003C3C7F7F42
:106670007F7F3C3C0000007C000000003C7C7E7E74
:106680007E7E7C3C00007C10000000007C7C7C7CDA
:106690007C7C7C7C007C10100000000000007C7C76
:1066A0007C7C7C7C7C7C007C000000000000000086
:1066B0007C7C7C7C7C7C7C7C0000000000000000FA
:1066C00000007C7C7C7C7C7C0000000000000000E2
:1066D000000000007C7C7C7C0000000000000000CA
:1066E0000000000000007C7C0000000000000000B2
:1066F000000000000000000000000000000000009A
:106700000000000000000000FFFF8080FFFF00008D
:10671000FFFF838383830000FFFF00000000000071
:10672000FFFF000000000000F8FE0F0FFEF8000061
:10673000FFFF0000FFFF000000000000000000005D
:106740000000000000000000000000000000000049
:106750000000000000000000FFFF0101FFFF00003B
:10676000FFFFC1C1C1C10000FFFFC0C0C0C0000029
:10677000FFFFC0C0C0C000001F7FF0F07F1F0000FF
:10678000CFCF0000CFCF00000000000000000000CD
:1067900000000000000000000000000000000000F9
:1067A0000000000000000000FFFF838383830000DF
:1067B0001F3FF0F03F1F00000303FFFF0303000033
:1067C0000303FFFF030300000303FFFF03030000B5
:1067D000FFFFF8E0FFFF0000F8FE07073E3800006B
:1067E000FFFF0000FFFF00000000000000000000AD
:1067F0000000000000000000000000000000000099
:106800000000000000000000FFFFC1C1C1C1000086
:10681000F8FC0F0FFCF80000C0C0FFFFC0C0000074
:106820000000FFFF00000000C0C0FFFFC0C000006C
:10683000FFFF031FFFFF00003FFFE07038FC000078
:10684000CFCF0000CFCF000000000000000000000C
:106850000000000000000000000000000000000038
:106860000000000000000000F8FE8F8FFEF800001E
:10687000FFFF8FCFFE780000F8FE0F070303000034
:10688000FFFF070FFEF80000FFFF838383830000F4
:10689000FFFF838383830000F8FE07073E38000074
:1068A000FFFF8080FFFF00000303FFFF03030000E2
:1068B0000303FFFF03030000FFFFE0703F1F000022
:1068C000FFFF000000000000FFFFF8E0FFFF0000F6
:1068D000F8FE0F0FFEF80000FFFF8FCFFE780000DC
:1068E000F8FE0F0FFEF80000FFFF8FCFFE780000CC
:1068F00078FECF8F9E1800000303FFFF0303000004
:10690000FFFF0000FFFF0000FFFF0000FFFF00008F
:10691000C0FC7F7FFCFC7F7FFCC00000FFFF00000D
:10692000FFFF0000FFFF00001F3FF0F03F1F0000CF
:106930003FFFE0E0FF3F00000303C3F37F1F0000C1
:10694000FFFF0000FFFF0000181E0FCFFE780000C1
:10695000303CFFFF00000000181E0FCFFE78000043
:10696000181E8FCFFE78000080E0FC3FFFFF000084
:106970007FFFC3C3C3030000F8FECFCF9E18000003
:10698000030303C3FFFF000078FECFCFFE780000B3
:1069900078FECFCFFEF80000F8FE0F0FFEF80000E3
:1069A000003C3C3C3C000000C0C0C0C0C0C0000077
:1069B00000F0FC3F0700000000073FFCF000000073
:1069C000003EFFF3F0000000000FCFFF7C0000004E
:1069D00000000000000000000000000000000000B7
:1069E00000000000000000000000000000000000A7
:1069F000FFFF0303FFFF0000FFFFF1F37F3C0000F8
:106A00001F7FF0E0C0C00000FFFFE0F07F1F00002C
:106A1000FFFFC1C1C1C10000FFFF01010101000072
:106A20003FFFE07038FC0000FFFF0101FFFF0000A6
:106A3000C0C0FFFFC0C00000E0F87F1F00000000E2
:106A4000FFFF070EFCF80000FFFFC0C0C0C0000041
:106A5000FFFF031FFFFF00001F7FF0F07F1F0000FC
:106A6000FFFF0101000000001F7FC0C07FDF0000AA
:106A7000FFFF030FFEF800001879F1F37F1E0000FE
:106A80000000FFFF000000001F7FF0F07F1F0000EC
:106A9000033FFEFE3F030000FFFF0000FFFF00007A
:106AA000FFFF0000033FFEFE3F3FFEFE3F030000EE
:106AB000F8FC0F0FFCF800000000FFFF00000000D2
:106AC000F8FECFC3C0C00000CFCF0000CFCF000082
:106AD0000000CFCF01000000C0C0FFFFC0C0000019
:106AE000F8FECFC3C0C000001878F1F37F3C00006F
:106AF00003030303FFFF00001878F0F37F1F00007B
:106B00001F7FF3F37F1E00000000F8FF0F0000005E
:106B10003C7FF3F37F3C00001879F3F37F1F000004
:106B20001F7FF0F07F1F0000003C3C3C3C00000059
:106B30000303030303030000000F3FFCE000000019
:106B400000E0FC3F0F00000000000000000000001B
:106B50000000000000000000000000000000000035
:106B60000000000000000000000000000000000025
:106B70000000000000000000C0FC7F7FFCFC7F7F65
:106B8000FCC00000F8FE0F0FFEF80000FFFF070F2B
:106B9000FEF80000FFFF838383830000003C3C3C41
:106BA0003C000000FFFF838383830000F8FE8F8F8B
:106BB000FEF8000078FECF8F9E1800000303FFFF51
:106BC0000303000000F0FC3F07000000FFFF070F79
:106BD000FEF80000003EFFF3F0000000303CFFFF35
:106BE00000000000F8FE0F0FFEF80000000FCFFFBE
:106BF0007C00000000073FFCF000000000000000E7
:106C00000000000000000000000000000000000084
:106C1000000000000000000000000000FFFF000076
:106C2000FFFF0000FFFF00001F7FF0F07F1F00004C
:106C3000FFFFE0F07F1F0000FFFFC1C1C1C10000E6
:106C4000003C3C3C3C000000FFFF01010101000052
:106C5000FFFF0303FFFF00001879F1F37F1E000020
:106C60000000FFFF00000000000F3FFCE0000000FC
:106C7000FFFFE0F07F1F00000000000000000000A8
:106C8000C0C0FFFFC0C000001F7FF0F07F1F0000EA
:106C9000000000000000000000E0FC3F0F000000CA
:106CA00000000000000000000000000000000000E4
:106CB00000000000000000000000000000000000D4
:106CC000C0FC7F7FFCFC7F7FFCC00000F8FE0F0F44
:106CD000FEF80000FFFF070FFEF80000FFFF8383B0
:106CE00083830000003C3C3C3C00000078FECF8FDA
:106CF0009E180000FFFF000000000000F8FE0F0FCC
:106D0000FEF80000FFFF0000FFFF0000FFFF000093
:106D100000F0FC3F07000000FFFF070FFEF8000037
:106D2000003EFFF3F0000000181E0FCFFE780000B9
:106D3000F8FE0F0FFEF80000000FCFFF7C000000F0
:106D400000073FFCF0000000000000000000000011
:106D50000000000000000000000000000000000033
:106D60000000000000000000FFFF0000FFFF000027
:106D7000FFFF00001F7FF0F07F1F0000FFFFE0F02B
:106D80007F1F0000FFFFC1C1C1C10000003C3C3CAF
:106D90003C0000001879F1F37F1E0000FFFFC0C027
:106DA000C0C000001F7FF0F07F1F0000033FFEFE09
:106DB0003F3FFEFE3F030000000F3FFCE0000000ED
:106DC000FFFFE0F07F1F0000000000000000000057
:106DD000F8FECFC3C0C000001F7FF0F07F1F00008F
:106DE000000000000000000000E0FC3F0F00000079
:106DF0000000000000000000000000000000000093
:106E00000000000000000000000000000000000082
:106E10000002721A0E06063E0004848C98F0FE00F2
:106E2000000080B189090E06261C00080870C0C049
:106E30000080E040588C8C0507661C041070E00050
:106E40008040E0303068C4040645261C0820C0009D
:106E50002030F0781818600404044C4F3E3880004D
:106E60000808C8780C0C1C6004048C88487F7000EB
:106E70000002721A0E06063E0004848C98F0FE0092
:106E80000002721A0E06063E0004848C98F0FE0082
:106E9000007E0F19312120007C606070584E400048
:106EA0003807071C200170C8C0E020211A02030126
:106EB00003010F1C104070CCC040626234040F0309
:106EC000000107083078CC44C040422408180F0560
:106ED00000000338F8E4644040401860607C1F18EC
:106EE00000001DFC24226240400C7060603C2720A2
:106EF000007E0F19312120007C606070584E4000E8
:106F0000007E0F19312120007C606070584E4000D7
:106F1000000003033F7FFFFFFFFF7F3F03030000ED
:106F2000000003033F6BD5ABABD56B3F0303000001
:106F3000000003033F6BD5ABABD56B3F03030000F1
:106F4000000003033F6BD5A9A9D56B3F03030000E5
:106F5000000003033F69D5A9A9D5693F03030000D9
:106F6000000003033F69D1A9A9D1693F03030000D1
:106F7000000003033F69D1A1A1D1693F03030000D1
:106F8000000003033F61D1A1A1D1613F03030000D1
:106F9000000003033F61C1A1A1C1613F03030000E1
:106FA000000003033F61C1A1A1C1613F03030000D1
:106FB000000003033F61C18181C1613F0303000001
:106FC000000003033F61C18181C1613F03030000F1
:106FD0000000000001316FC1810183C2E21E0C0C70
:106FE00000000000000010FD8301838284C4383853
:106FF00000000000808000B0F8050303060C9870C4
:1070000080008080C0808080E078080707061860D4
:10701000F0C0C0C0E0E0C080C0703010080E0EF0BC
:10702000FCFCF0F0F0F0E0C0C060301010101CFC70
:1070300080F0FEFEFCF8F8F8E030180C04080808B0
:10704000C0E0F8FEFFFFF8F8E0808080C08080009C
:10705000E070F8FCFEFFFFFDF8B00080800000004B
:107060003038F8FCFCFEFFFFFFFD100000000000C0
:10707000000C0C1CFEFEFEFFFFFF7F310100000034
:10708000000003033F7FFFFFFFFF7F3F030300007C
:107090000000C0C0FC868381818386FCC0C00000E4
:1070A0000000C0C0FC868381818386FCC0C00000D4
:1070B0000000C0C0FC8683C1C18386FCC0C0000044
:1070C0000000C0C0FC8683C1C18386FCC0C0000034
:1070D0000000C0C0FCC683C1C183C6FCC0C00000A4
:1070E0000000C0C0FCC6A3C1C1A3C6FCC0C0000054
:1070F0000000C0C0FCC6A3D1D1A3C6FCC0C0000024
:107100000000C0C0FCD6A3D1D1A3D6FCC0C00000F3
:107110000000C0C0FCD6ABD1D1ABD6FCC0C00000D3
:107120000000C0C0FCD6ABD5D5ABD6FCC0C00000BB
:107130000000C0C0FCD6ABD5D5ABD6FCC0C00000AB
:107140000000C0C0FCFEFFFFFFFFFEFCC0C000004F
:1071500000606070FEFEFFFFFFFFFD1800000000F2
:107160001838387E7FFFFFFFFF7F1101000000000D
:107170000E1C3E7FFFFFFF7F3F1B0103030100004A
:10718000070F3FFFFFFF3F1F030303020602030138
:10719000031FFFFF3F1F1F1F0703060C0804040403
:1071A0003F3F0F0F0F0F070303060C080808383F77
:1071B0001F0707070F0F0703071C181020E0E01F29
:1071C00003010303070303031F3D20C0C0C0300DAC
:1071D000000000010303011B3F418181C161321C9A
:1071E000000000000101117FC701818343423E3846
:1071F000000000000018ED07038183868E70606038
:107200000000C0C0FC868381818386FCC0C0000072
:020000040030CA
:03000100011F1EBE
:020005008381F5
:060008000FC00FE00F40E5
:00000001FF
