:020000040000FA
:1000000033EC01F046EF01F0026ED8CF03F0E0CF01
:1000100004F0F0B218EF00F0F290058620EF00F047
:10002000AE50058420EF00F09E9C058020EF00F08C
:10003000F092058220EF00F0F294058820EF00F0A6
:1000400004C0E0FF025003C0D8FF1000FA0E0D6E8E
:10005000800E0BEC01F0000E0BEC01F08284829418
:10006000400E0BEC01F0360E0BEC01F08284829412
:10007000200E0BEC01F0460E0BEC01F08284829412
:10008000100E0BEC01F0400E0BEC01F08284829418
:10009000080E0BEC01F0400E0BEC01F08284829410
:1000A000040E0BEC01F0460E0BEC01F082848294FE
:1000B000020E0BEC01F0360E0BEC01F08284829400
:1000C000010E0BEC01F0000E0BEC01F08284829427
:1000D000FA0E0C6EFFEC00F00D2EBAD7FA0E0D6E74
:1000E000800E0BEC01F0000E0BEC01F08284829488
:1000F000400E0BEC01F0060E0BEC01F082848294B2
:10010000200E0BEC01F0460E0BEC01F08284829481
:10011000100E0BEC01F0400E0BEC01F08284829487
:10012000080E0BEC01F0400E0BEC01F0828482947F
:10013000040E0BEC01F0460E0BEC01F0828482946D
:10014000020E0BEC01F0060E0BEC01F0828482949F
:10015000010E0BEC01F0000E0BEC01F08284829496
:10016000FA0E0C6EFFEC00F00D2EBAD7FA0E0D6EE3
:10017000800E0BEC01F0000E0BEC01F082848294F7
:10018000400E0BEC01F0060E0BEC01F08284829421
:10019000200E0BEC01F0060E0BEC01F08284829431
:1001A000100E0BEC01F0600E0BEC01F082848294D7
:1001B000080E0BEC01F0600E0BEC01F082848294CF
:1001C000040E0BEC01F0060E0BEC01F0828482941D
:1001D000020E0BEC01F0060E0BEC01F0828482940F
:1001E000010E0BEC01F0000E0BEC01F08284829406
:1001F000FA0E0C6EFFEC00F00D2EBAD727D700D008
:1002000000D000D000D000D000D000D000D000003E
:100210000C2EF5D712000A6E82940B860A3605E280
:1002200082928290828018EF01F082828290828096
:10023000D8900B2E0EEF01F01200016EFA0E006E38
:1002400000D000D000D000D000D000D000D000D02E
:100250000000002EF5D7012EF1D71200016E00D05C
:10026000012EFDD71200896A8A6A8B6AFF0E926E90
:100270000F0EC16E070EB46EFF0E936E000EF16E80
:10028000000E946E056AF088F28E120082948290BD
:0802900082920B6A26EF00F0D8
:020000040030CA
:0E000000000C1F1EFF8181FF0FC00FE00F409C
:00000001FF
