:020000040000FA
:0400000018EF00F005
:100030000F0EC16E956A94683F0E836E82A03DECF0
:1000400000F082A246EC00F082A44FEC00F082A601
:1000500058EC00F082A861EC00F082AA6AEC00F093
:1000600082AC73EC00F082AE7CEC00F01EEF00F08E
:10007000200EF06FF007FEE11200060E836E38ECE2
:1000800000F082A0FED738EC00F012005B0E836E09
:1000900038EC00F082A2FED738EC00F012004F0ED0
:1000A000836E38EC00F082A4FED738EC00F012002A
:1000B000660E836E38EC00F082A6FED738EC00F0B6
:1000C00012006D0E836E38EC00F082A8FED738EC7B
:1000D00000F012007D0E836E38EC00F082AAFED78D
:1000E00038EC00F01200070E836E38EC00F082ACA2
:1000F000FED738EC00F012007F0E836E38EC00F073
:0A01000082AEFED738EC00F01200CA
:020000040030CA
:03000100011F1EBE
:020005008381F5
:060008000FC00FE00F40E5
:00000001FF
