:020000040000FA
:0600000082EF05F0120082
:0A0006000100340B00008000000030
:0400100038000000B4
:0C0014000001E26BE36B0F0EC16E9468FC
:10002000936A956A826A380EE66EEFEC03F0E55249
:10003000060EE66EE5EC04F0E5520C0EE66EE5EC1D
:1000400004F0E552800EE66E91EC04F0E55209D81A
:10005000E80EE66E030EE66EA7DBE552E552F7D733
:1000600012008250010B15E08250020B12E0825008
:10007000040B0FE08250080B0CE08250100B09E0DB
:100080008250200B06E08250400B03E08250800B30
:1000900002E103D801D0E5D712009B0EE66E000EF8
:1000A000E66E0EEC05F0E552E5520001D86BD96B17
:1000B000040ED85D000ED9593CE28250010B15E0C8
:1000C0008250020B12E08250040B0FE08250080BAA
:1000D0000CE08250100B09E08250200B06E08250A9
:1000E000400B03E08250800B01E104D0E22B000EB4
:1000F000E323E3D7E2C000F0E3C001F00001016AAE
:10010000070E0016D8C0E9FFD9C0EAFF010ED8904B
:10011000E936EA36E806FBE1C00EE926000EEA22DF
:1001200000C0EEFF01C0EDFF0001D82B000ED92367
:10013000BFD7D86BD96B040ED85D000ED95930E209
:10014000D8C0E9FFD9C0EAFF010ED890E936EA36F7
:10015000E806FBE1C00EE926000EEA22EECFE6FF3C
:10016000EFCFE6FF2BDAE552E552F3CF00F0F4CF04
:1001700001F0D8C0E9FFD9C0EAFF010ED890E936F6
:10018000EA36E806FBE1D00EE926000EEA2200C0BE
:10019000EEFF01C0EDFF0001D82B000ED923CBD715
:1001A000D00EE66E000EE66E0EEC05F0E552E5525E
:1001B0000001D86BD96B040ED85D000ED95916E238
:1001C000D8C0E9FFD9C0EAFF010ED890E936EA3677
:1001D000E806FBE1C80EE926000EEA22020EEE6EEA
:1001E000ED6A0001D82B000ED923E5D700018C5110
:1001F0008D1101E1DAD0DAD80001D86BD96B040E89
:10020000D85D000ED9594AE2DA6BDB6B040EDA5D79
:10021000000EDB593FE2D8C0E9FFD9C0EAFF010E6A
:10022000D890E936EA36E806FBE1B80EE926000E7A
:10023000EA22EECF00F0EFCF01F0DAC0E9FFDBC039
:10024000EAFF010ED890E936EA36E806FBE1C00E77
:10025000E926000EEA22EECF02F0EFCF03F00250C3
:10026000001802E10350011810E1D8C0E9FFD9C01D
:10027000EAFF010ED890E936EA36E806FBE1C80E3F
:10028000E926000EEA22EE6AED6A0001DA2B000E82
:10029000DB23BCD7D82B000ED923B1D7D86BD96BB1
:1002A000040ED85D000ED95940E2D8C0E9FFD9C08C
:1002B000EAFF010ED890E936EA36E806FBE1B80E0F
:1002C000E926000EEA22EECF00F0EFCF01F0D8C011
:1002D000E9FFD9C0EAFF010ED890E936EA36E80610
:1002E000FBE1C00EE926000EEA22EECF02F0EFCFCE
:1002F00003F00250001802E10350011811E1D8C0C8
:10030000E9FFD9C0EAFF010ED890E936EA36E806DF
:10031000FBE1C80EE926000EEA22010EEE6EED6A40
:100320000001D82B000ED923BBD7D86BD96BDC6B5F
:10033000DD6B040ED85D000ED9592EE2010E006E61
:10034000016AD8C0E9FFD9C0EAFFD890E936EA3699
:10035000E806FBE1C80EE926000EEA2200C0EEFF27
:1003600001C0EDFF0050011004E00001DC2B000E85
:10037000DD230001040EDC1901E1DD5107E100017C
:100380008C6B8D6B0001DC6BDD6B02D0DC6BDD6B8D
:10039000D82B000ED923CDD72AD9E80EE66E030E4E
:1003A000E66E02DAE552E55221D712000001D86B61
:1003B000D96B040ED85D000ED95901E3BFD082B0CD
:1003C00015D0D8C0E9FFD9C0EAFF010ED890E936B0
:1003D000EA36E806FBE1B80EE926000EEA22EE6AEC
:1003E000ED6A0001D82B000ED923A7D082B216D017
:1003F000D8C0E9FFD9C0EAFF010ED890E936EA3645
:10040000E806FBE1B80EE926000EEA22010EEE6EC8
:10041000ED6A0001D82B000ED9238FD082B416D0FC
:10042000D8C0E9FFD9C0EAFF010ED890E936EA3614
:10043000E806FBE1B80EE926000EEA22020EEE6E97
:10044000ED6A0001D82B000ED92377D082B616D0E2
:10045000D8C0E9FFD9C0EAFF010ED890E936EA36E4
:10046000E806FBE1B80EE926000EEA22030EEE6E66
:10047000ED6A0001D82B000ED9235FD082B816D0C8
:10048000D8C0E9FFD9C0EAFF010ED890E936EA36B4
:10049000E806FBE1B80EE926000EEA22040EEE6E35
:1004A000ED6A0001D82B000ED92347D082BA16D0AE
:1004B000D8C0E9FFD9C0EAFF010ED890E936EA3684
:1004C000E806FBE1B80EE926000EEA22050EEE6E04
:1004D000ED6A0001D82B000ED9232FD082BC16D094
:1004E000D8C0E9FFD9C0EAFF010ED890E936EA3654
:1004F000E806FBE1B80EE926000EEA22060EEE6ED3
:10050000ED6A0001D82B000ED92317D082BE15D07A
:10051000D8C0E9FFD9C0EAFF010ED890E936EA3623
:10052000E806FBE1B80EE926000EEA22070EEE6EA1
:10053000ED6A0001D82B000ED9233BD7D86BD96BBD
:10054000030ED85D000ED95930E2D8C0E9FFD9C0FA
:10055000EAFF010ED890E936EA36E806FBE1B80E6C
:10056000E926000EEA22EECFE6FFEFCFE6FF26D81F
:10057000E552E552F3CF00F0F4CF01F0D8C0E9FF27
:10058000D9C0EAFF010ED890E936EA36E806FBE169
:10059000D00EE926000EEA2200C0EEFF01C0EDFFFA
:1005A0000001D82B000ED923CBD7D00EE66E000E5B
:1005B000E66E0EEC05F0E552E5521200D9CFE6FFEB
:1005C000E1CFD9FF300EE76EFD0EDBCF00F0FE0E5F
:1005D000DBCF01F0E7500026000E012200C0F3FF40
:1005E00001C0F4FF00D0E552E7CFD9FF12000001AF
:1005F0008C518D1101E08FD00001D86BD96B040EA6
:10060000D85D000ED95930E2D8C0E9FFD9C0EAFF61
:10061000010ED890E936EA36E806FBE1C80EE92675
:10062000000EEA22EECFE6FFEFCFE6FFC7DFE5528E
:10063000E552F3CF00F0F4CF01F0D8C0E9FFD9C004
:10064000EAFF010ED890E936EA36E806FBE1D00E63
:10065000E926000EEA2200C0EEFF01C0EDFF000116
:10066000D82B000ED923CBD7D00EE66E000EE66E47
:100670000EEC05F0E552E552640EE66EE66A94D89B
:10068000E552E5520001D86BD96B040ED85D000E1F
:10069000D95930E2D8C0E9FFD9C0EAFF010ED8909D
:1006A000E936EA36E806FBE1C00EE926000EEA224A
:1006B000EECFE6FFEFCFE6FF81DFE552E552F3CF65
:1006C00000F0F4CF01F0D8C0E9FFD9C0EAFF010E75
:1006D000D890E936EA36E806FBE1D00EE926000EAE
:1006E000EA2200C0EEFF01C0EDFF0001D82B000E92
:1006F000D923CBD7D00EE66E000EE66E0EEC05F0D9
:10070000E552E552A80EE66E000EE66E0EEC05F020
:10071000E552E55248D00001D86BD96B040ED85D84
:10072000000ED95930E2D8C0E9FFD9C0EAFF010E66
:10073000D890E936EA36E806FBE1C80EE926000E55
:10074000EA22EECFE6FFEFCFE6FF38DFE552E552D3
:10075000F3CF00F0F4CF01F0D8C0E9FFD9C0EAFF31
:10076000010ED890E936EA36E806FBE1D00EE9261C
:10077000000EEA2200C0EEFF01C0EDFF0001D82B01
:10078000000ED923CBD7D00EE66E000EE66E0EEC2F
:1007900005F0E552E552AF0EE66E000EE66E0EEC89
:1007A00005F0E552E5521200D9CFE6FFE1CFD9FFBF
:1007B0000001D86BD96BFD0EDBCF00F0FE0EDBCF56
:1007C00001F00050D85D0150D95904E2D82B000E39
:0E07D000D923F1D700D0E552E7CFD9FF1200B0
:0207DE00D9CF71
:1007E000E6FFDACFE6FFE1CFD9FFE2CFDAFFF00E86
:1007F00081169316939C939A93988A9C8A9A8A98C6
:1008000092EC05F0300E35D8050EE66E35EC05F0AD
:10081000E552300E2ED8010EE66E35EC05F0E552AD
:10082000320E27D82BD8FEE129D8FEE1FD0EDBCF12
:10083000E6FFE5EC04F0E55221D8FEE1080E19D8F8
:100840001DD8FEE10F0E15D819D8FEE1010E11D802
:1008500015D8FEE1040E0DD811D8FEE1800EE66E2B
:1008600091EC04F0E552E552E5CFDAFFE7CFD9FF8E
:100870001200E66EE5EC04F0E55212004CEC05F0D7
:040880000009120059
:0C088400060EF66E000EF76E000EF86E09
:1008900000010900F550E96F0900F550EA6F03E126
:1008A000E96701D03DD00900F550E46F0900F5502B
:1008B000E56F0900F550E66F09000900F550E96E93
:1008C0000900F550EA6E090009000900F550E76FCC
:1008D0000900F550E86F09000900F6CFEBF0F7CFFB
:1008E000ECF0F8CFEDF0E4C0F6FFE5C0F7FFE6C0AE
:1008F000F8FF0001E75302E1E85307E00900F55073
:10090000EE6EE707F8E2E807F9D7EBC0F6FFECC0B8
:10091000F7FFEDC0F8FF0001E907000EEA5BBFD763
:020920001200C3
:0E092200D9CFE6FFDACFE6FFE1CFD9FFE2CF73
:10093000DAFFF00E93168116FD0EDB508009E838C1
:100940000F0B0F0B81128A9C8A9A0FD8F00E81161A
:10095000FD0EDB500F0B811208D80F0E9312E552DB
:10096000E5CFDAFFE7CFD9FF120090EC05F08A88D7
:0809700090EC05F08A981200DA
:08097800D9CFE6FFDACFE6FF5C
:10098000E1CFD9FFE2CFDAFFF00E93168116FD0E0C
:10099000DB380F0B0F0B81128A8A8A9C0FD8F00E5E
:1009A0008116FD0EDB500F0B811208D80F0E93122B
:1009B000E552E5CFDAFFE7CFD9FF120090EC05F062
:0A09C0008A8890EC05F08A98120076
:0609CA00D9CFE6FFDACFF1
:1009D000E6FFE1CFD9FFE2CFDAFFF00E93168116E2
:1009E000FD0EDB380F0B0F0B81128A9C8A9A0FD8F1
:1009F000F00E8116FD0EDB500F0B811208D80F0E82
:100A00009312E552E5CFDAFFE7CFD9FF120090EC61
:0C0A100005F08A8890EC05F08A9812002E
:040A1C00D9CFE6FF49
:100A2000DACFE6FFE1CFD9FFE2CFDAFF16D80FE049
:100A30004CEC05F00009FCE110D8E66EBCEC04F0CB
:100A4000E552FC0EDB2AFD0EF1E3DB2AEFD7E5527F
:100A5000E5CFDAFFE7CFD9FF1200FC0EDBCFE9FFCD
:0A0A6000FD0EDBCFEAFFEF5012009D
:060A6A00FF0EE350076ED1
:100A7000EF0E01D0F30EE76EE72E3CEF05F00C0E03
:100A8000066EE76AE72E42EF05F0062E41EF05F00D
:080A9000072E3AEF05F01200F9
:080A98008A8C8A9A90EC05F0AB
:100AA0008A8890EC05F081A602D003D8010C01D809
:100AB000000C8A9890EC05F08A8890EC05F08A98F2
:040AC0008A9C1200FA
:0C0AC400FF0EE350076E480E01D04C0EF0
:100AD000E76EE72EFED7E76AE72EFED7072EF7D799
:040AE0000000120000
:0C0AE400000EF36E00EE00F0060E01D8CC
:100AF0001200EA6002D0EE6AFCD7F350E9601200FF
:040B0000EE6AFCD7C6
:0C0B040015EE00F025EE00F0F86A059CEC
:100B100042EC04F099EC05F00AEC00F0FBD712006F
:100B2000000012000F0EE66E62EC05F0E5521200B6
:020B30001200B1
:020B32001200AF
:0C0B34003F065B4F666D7D077F6F76000B
:100B40000100507265737320342054696D657350D1
:100B50007265737320616E79206B6579636F727251
:0C0B6000656374696E636F727265637484
:020000040030CA
:0100010002FC
:010003001EDE
:010006008178
:00000001FF
